{
  "contractName": "GroceriesFast",
  "abi": [
    {
      "anonymous": false,
      "inputs": [
        {
          "indexed": false,
          "internalType": "string",
          "name": "_name",
          "type": "string"
        },
        {
          "indexed": true,
          "internalType": "uint256",
          "name": "_id",
          "type": "uint256"
        }
      ],
      "name": "OrderCreated",
      "type": "event"
    },
    {
      "constant": false,
      "inputs": [
        {
          "internalType": "string",
          "name": "name",
          "type": "string"
        },
        {
          "internalType": "uint256",
          "name": "reward",
          "type": "uint256"
        }
      ],
      "name": "createOrder",
      "outputs": [
        {
          "internalType": "uint256",
          "name": "_id",
          "type": "uint256"
        }
      ],
      "payable": false,
      "stateMutability": "nonpayable",
      "type": "function"
    },
    {
      "constant": true,
      "inputs": [
        {
          "internalType": "uint256",
          "name": "id",
          "type": "uint256"
        }
      ],
      "name": "getOrderAddress",
      "outputs": [
        {
          "internalType": "address",
          "name": "",
          "type": "address"
        }
      ],
      "payable": false,
      "stateMutability": "view",
      "type": "function"
    }
  ],
  "bytecode": "0x608060405260405161001090610089565b604051809103906000f08015801561002c573d6000803e3d6000fd5b506000806101000a81548173ffffffffffffffffffffffffffffffffffffffff021916908373ffffffffffffffffffffffffffffffffffffffff160217905550662386f26fc1000060015534801561008357600080fd5b50610096565b610da58061141a83390190565b611375806100a56000396000f3fe608060405234801561001057600080fd5b50600436106100365760003560e01c806330ec9f181461003b57806397de706f146100a9575b600080fd5b6100676004803603602081101561005157600080fd5b8101908080359060200190929190505050610182565b604051808273ffffffffffffffffffffffffffffffffffffffff1673ffffffffffffffffffffffffffffffffffffffff16815260200191505060405180910390f35b61016c600480360360408110156100bf57600080fd5b81019080803590602001906401000000008111156100dc57600080fd5b8201836020820111156100ee57600080fd5b8035906020019184600183028401116401000000008311171561011057600080fd5b91908080601f016020809104026020016040519081016040528093929190818152602001838380828437600081840152601f19601f820116905080830192505050505050509192919290803590602001909291905050506101bf565b6040518082815260200191505060405180910390f35b60006003600083815260200190815260200160002060009054906101000a900473ffffffffffffffffffffffffffffffffffffffff169050919050565b60008180600154111561021d576040517f08c379a000000000000000000000000000000000000000000000000000000000815260040180806020018281038252602381526020018061131e6023913960400191505060405180910390fd5b6000848460025433604051610231906104a2565b80806020018581526020018481526020018373ffffffffffffffffffffffffffffffffffffffff1673ffffffffffffffffffffffffffffffffffffffff168152602001828103825286818151815260200191508051906020019080838360005b838110156102ac578082015181840152602081019050610291565b50505050905090810190601f1680156102d95780820380516001836020036101000a031916815260200191505b5095505050505050604051809103906000f0801580156102fd573d6000803e3d6000fd5b5090508060036000600254815260200190815260200160002060006101000a81548173ffffffffffffffffffffffffffffffffffffffff021916908373ffffffffffffffffffffffffffffffffffffffff160217905550600254925061036f600160025461041a90919063ffffffff16565b600281905550827f1a72d6383b1fc1b015bedc584a040a3cba7b0a5e33b00a43a1693b852be2382e866040518080602001828103825283818151815260200191508051906020019080838360005b838110156103d85780820151818401526020810190506103bd565b50505050905090810190601f1680156104055780820380516001836020036101000a031916815260200191505b509250505060405180910390a2505092915050565b600080828401905083811015610498576040517f08c379a000000000000000000000000000000000000000000000000000000000815260040180806020018281038252601b8152602001807f536166654d6174683a206164646974696f6e206f766572666c6f77000000000081525060200191505060405180910390fd5b8091505092915050565b610e6e806104b08339019056fe60806040523480156200001157600080fd5b5060405162000e6e38038062000e6e833981810160405260808110156200003757600080fd5b81019080805160405193929190846401000000008211156200005857600080fd5b838201915060208201858111156200006f57600080fd5b82518660018202830111640100000000821117156200008d57600080fd5b8083526020830192505050908051906020019080838360005b83811015620000c3578082015181840152602081019050620000a6565b50505050905090810190601f168015620000f15780820380516001836020036101000a031916815260200191505b50604052602001805190602001909291908051906020019092919080519060200190929190505050836006908051906020019062000131929190620001ac565b508260018190555081600481905550806000806101000a81548173ffffffffffffffffffffffffffffffffffffffff021916908373ffffffffffffffffffffffffffffffffffffffff160217905550426002819055506001600760016101000a81548160ff021916908315150217905550505050506200025b565b828054600181600116156101000203166002900490600052602060002090601f016020900481019282601f10620001ef57805160ff191683800117855562000220565b8280016001018555821562000220579182015b828111156200021f57825182559160200191906001019062000202565b5b5090506200022f919062000233565b5090565b6200025891905b80821115620002545760008160009055506001016200023a565b5090565b90565b610c03806200026b6000396000f3fe60806040526004361061009c5760003560e01c80634665096d116100645780634665096d146102fc578063730ef269146103275780637437558c146103525780639d9a7fe914610428578063af640d0f14610457578063bfb231d2146104825761009c565b806306fdde03146101bc57806313845d2f1461024c57806313faede6146102775780631ff11f54146102a2578063228cb733146102d1575b3373ffffffffffffffffffffffffffffffffffffffff166000809054906101000a900473ffffffffffffffffffffffffffffffffffffffff1673ffffffffffffffffffffffffffffffffffffffff1614610141576040517f08c379a0000000000000000000000000000000000000000000000000000000008152600401808060200182810382526026815260200180610ba96026913960400191505060405180910390fd5b600080369050146101ba576040517f08c379a000000000000000000000000000000000000000000000000000000000815260040180806020018281038252601c8152602001807f496e76616c69642066756e6374696f6e207761732063616c6c65642e0000000081525060200191505060405180910390fd5b005b3480156101c857600080fd5b506101d1610545565b6040518080602001828103825283818151815260200191508051906020019080838360005b838110156102115780820151818401526020810190506101f6565b50505050905090810190601f16801561023e5780820380516001836020036101000a031916815260200191505b509250505060405180910390f35b34801561025857600080fd5b506102616105e3565b6040518082815260200191505060405180910390f35b34801561028357600080fd5b5061028c6105e9565b6040518082815260200191505060405180910390f35b3480156102ae57600080fd5b506102b76105ef565b604051808215151515815260200191505060405180910390f35b3480156102dd57600080fd5b506102e6610602565b6040518082815260200191505060405180910390f35b34801561030857600080fd5b50610311610608565b6040518082815260200191505060405180910390f35b34801561033357600080fd5b5061033c61060e565b6040518082815260200191505060405180910390f35b34801561035e57600080fd5b506104266004803603604081101561037557600080fd5b810190808035906020019064010000000081111561039257600080fd5b8201836020820111156103a457600080fd5b803590602001918460018302840111640100000000831117156103c657600080fd5b91908080601f016020809104026020016040519081016040528093929190818152602001838380828437600081840152601f19601f820116905080830192505050505050509192919290803561ffff16906020019092919050505061061b565b005b34801561043457600080fd5b5061043d61098b565b604051808215151515815260200191505060405180910390f35b34801561046357600080fd5b5061046c61099e565b6040518082815260200191505060405180910390f35b34801561048e57600080fd5b506104bb600480360360208110156104a557600080fd5b81019080803590602001909291905050506109a4565b60405180806020018361ffff1661ffff168152602001828103825284818151815260200191508051906020019080838360005b838110156105095780820151818401526020810190506104ee565b50505050905090810190601f1680156105365780820380516001836020036101000a031916815260200191505b50935050505060405180910390f35b60068054600181600116156101000203166002900480601f0160208091040260200160405190810160405280929190818152602001828054600181600116156101000203166002900480156105db5780601f106105b0576101008083540402835291602001916105db565b820191906000526020600020905b8154815290600101906020018083116105be57829003601f168201915b505050505081565b60025481565b60055481565b600760019054906101000a900460ff1681565b60015481565b60035481565b6000600880549050905090565b3373ffffffffffffffffffffffffffffffffffffffff166000809054906101000a900473ffffffffffffffffffffffffffffffffffffffff1673ffffffffffffffffffffffffffffffffffffffff16146106c0576040517f08c379a0000000000000000000000000000000000000000000000000000000008152600401808060200182810382526026815260200180610ba96026913960400191505060405180910390fd5b600760019054906101000a900460ff16610742576040517f08c379a000000000000000000000000000000000000000000000000000000000815260040180806020018281038252601a8152602001807f54686973206f72646572206973206e6f74206f6e676f696e672e00000000000081525060200191505060405180910390fd5b60008251116107b9576040517f08c379a00000000000000000000000000000000000000000000000000000000081526004018080602001828103825260198152602001807f50726f64756374206d75737420686176652061206e616d652e0000000000000081525060200191505060405180910390fd5b60008161ffff1611610833576040517f08c379a000000000000000000000000000000000000000000000000000000000815260040180806020018281038252601d8152602001807f5072696365206d7573742062652067726561746572207468616e20302e00000081525060200191505060405180910390fd5b61084c8161ffff16600554610a7b90919063ffffffff16565b600581905550600860405180604001604052808481526020018361ffff168152509080600181540180825580915050906001820390600052602060002090600202016000909192909190915060008201518160000190805190602001906108b4929190610b03565b5060208201518160010160006101000a81548161ffff021916908361ffff1602179055505050507f2f6818f53db2ccff742df7c778d4148082fadbe303ea6fc07656cc76a6245c57828260405180806020018361ffff1661ffff168152602001828103825284818151815260200191508051906020019080838360005b8381101561094c578082015181840152602081019050610931565b50505050905090810190601f1680156109795780820380516001836020036101000a031916815260200191505b50935050505060405180910390a15050565b600760009054906101000a900460ff1681565b60045481565b600881815481106109b157fe5b9060005260206000209060020201600091509050806000018054600181600116156101000203166002900480601f016020809104026020016040519081016040528092919081815260200182805460018160011615610100020316600290048015610a5d5780601f10610a3257610100808354040283529160200191610a5d565b820191906000526020600020905b815481529060010190602001808311610a4057829003601f168201915b5050505050908060010160009054906101000a900461ffff16905082565b600080828401905083811015610af9576040517f08c379a000000000000000000000000000000000000000000000000000000000815260040180806020018281038252601b8152602001807f536166654d6174683a206164646974696f6e206f766572666c6f77000000000081525060200191505060405180910390fd5b8091505092915050565b828054600181600116156101000203166002900490600052602060002090601f016020900481019282601f10610b4457805160ff1916838001178555610b72565b82800160010185558215610b72579182015b82811115610b71578251825591602001919060010190610b56565b5b509050610b7f9190610b83565b5090565b610ba591905b80821115610ba1576000816000905550600101610b89565b5090565b9056fe4f6e6c7920746865206f776e65722063616e2063616c6c20746869732066756e6374696f6e2ea265627a7a72315820684da9ec4aaf96aef9f915d3748cb62809e70738f4ce05a066ead4fe8d19569d64736f6c634300050c0032526577617264206d757374206265206174206c6561737420302e30312065746865722ea265627a7a723158200a7d1acc2a0a9658e731ab2f2f96ba388e308a8ba382c7bc85ff9b4a0ff9676e64736f6c634300050c0032608060405234801561001057600080fd5b50610d85806100206000396000f3fe608060405234801561001057600080fd5b50600436106100ea5760003560e01c80639054bdec1161008c578063a6f0e57711610066578063a6f0e5771461046f578063b1999937146104b9578063b238ad0e146104fb578063fa93f88314610554576100ea565b80639054bdec1461035657806392d66313146103dd578063a324ad2414610427576100ea565b806365c72840116100c857806365c72840146101f95780637f791833146102415780638aa001fc146102ae5780638c8d98a0146102f6576100ea565b80633e239e1a146100ef5780634ac1ad781461013757806362ba96871461017f575b600080fd5b61011b6004803603602081101561010557600080fd5b810190808035906020019092919050505061059c565b604051808260ff1660ff16815260200191505060405180910390f35b6101636004803603602081101561014d57600080fd5b81019080803590602001909291905050506105c3565b604051808260ff1660ff16815260200191505060405180910390f35b6101e3600480360360a081101561019557600080fd5b81019080803561ffff169060200190929190803560ff169060200190929190803560ff169060200190929190803560ff169060200190929190803560ff1690602001909291905050506105e6565b6040518082815260200191505060405180910390f35b6102256004803603602081101561020f57600080fd5b8101908080359060200190929190505050610602565b604051808260ff1660ff16815260200191505060405180910390f35b6102986004803603608081101561025757600080fd5b81019080803561ffff169060200190929190803560ff169060200190929190803560ff169060200190929190803560ff169060200190929190505050610618565b6040518082815260200191505060405180910390f35b6102da600480360360208110156102c457600080fd5b8101908080359060200190929190505050610633565b604051808260ff1660ff16815260200191505060405180910390f35b6103406004803603606081101561030c57600080fd5b81019080803561ffff169060200190929190803560ff169060200190929190803560ff169060200190929190505050610647565b6040518082815260200191505060405180910390f35b6103c7600480360360c081101561036c57600080fd5b81019080803561ffff169060200190929190803560ff169060200190929190803560ff169060200190929190803560ff169060200190929190803560ff169060200190929190803560ff169060200190929190505050610662565b6040518082815260200191505060405180910390f35b610409600480360360208110156103f357600080fd5b81019080803590602001909291905050506108ed565b604051808261ffff1661ffff16815260200191505060405180910390f35b6104536004803603602081101561043d57600080fd5b8101908080359060200190929190505050610996565b604051808260ff1660ff16815260200191505060405180910390f35b61049f6004803603602081101561048557600080fd5b81019080803561ffff1690602001909291905050506109ac565b604051808215151515815260200191505060405180910390f35b6104e5600480360360208110156104cf57600080fd5b8101908080359060200190929190505050610a21565b6040518082815260200191505060405180910390f35b6105386004803603604081101561051157600080fd5b81019080803560ff169060200190929190803561ffff169060200190929190505050610a54565b604051808260ff1660ff16815260200191505060405180910390f35b6105806004803603602081101561056a57600080fd5b8101908080359060200190929190505050610b20565b604051808260ff1660ff16815260200191505060405180910390f35b60006018603c8084816105ab57fe5b04816105b357fe5b04816105bb57fe5b069050919050565b6000600760046201518084816105d557fe5b0401816105de57fe5b069050919050565b60006105f786868686866000610662565b905095945050505050565b600061060d82610b3d565b604001519050919050565b600061062985858585600080610662565b9050949350505050565b6000603c828161063f57fe5b069050919050565b60006106598484846000806000610662565b90509392505050565b6000806107b290505b8761ffff168161ffff1610156106ae57610684816109ac565b15610697576301e28500820191506106a1565b6301e13380820191505b808060010191505061066b565b6106b6610cda565b601f816000600c81106106c557fe5b602002019060ff16908160ff16815250506106df896109ac565b1561070957601d816001600c81106106f357fe5b602002019060ff16908160ff168152505061072a565b601c816001600c811061071857fe5b602002019060ff16908160ff16815250505b601f816002600c811061073957fe5b602002019060ff16908160ff1681525050601e816003600c811061075957fe5b602002019060ff16908160ff1681525050601f816004600c811061077957fe5b602002019060ff16908160ff1681525050601e816005600c811061079957fe5b602002019060ff16908160ff1681525050601f816006600c81106107b957fe5b602002019060ff16908160ff1681525050601f816007600c81106107d957fe5b602002019060ff16908160ff1681525050601e816008600c81106107f957fe5b602002019060ff16908160ff1681525050601f816009600c811061081957fe5b602002019060ff16908160ff1681525050601e81600a600c811061083957fe5b602002019060ff16908160ff1681525050601f81600b600c811061085957fe5b602002019060ff16908160ff1681525050600191505b8760ff168261ffff1610156108af57806001830361ffff16600c811061089157fe5b602002015160ff16620151800283019250818060010192505061086f565b6001870360ff166201518002830192508560ff16610e1002830192508460ff16603c02830192508360ff168301925082925050509695505050505050565b600080600090506000806301e13380858161090457fe5b046107b261ffff1601915061091e6107b261ffff16610a21565b61092b8361ffff16610a21565b039050806301e285000283019250806107b2830361ffff16036301e1338002830192505b8483111561098b57610963600183036109ac565b15610976576301e2850083039250610980565b6301e13380830392505b60018203915061094f565b819350505050919050565b60006109a182610b3d565b602001519050919050565b60008060048361ffff16816109bd57fe5b0661ffff16146109d05760009050610a1c565b600060648361ffff16816109e057fe5b0661ffff16146109f35760019050610a1c565b60006101908361ffff1681610a0457fe5b0661ffff1614610a175760009050610a1c565b600190505b919050565b60006001820391506101908281610a3457fe5b0460648381610a3f57fe5b0460048481610a4a57fe5b0403019050919050565b600060018360ff161480610a6b575060038360ff16145b80610a79575060058360ff16145b80610a87575060078360ff16145b80610a95575060088360ff16145b80610aa35750600a8360ff16145b80610ab15750600c8360ff16145b15610abf57601f9050610b1a565b60048360ff161480610ad4575060068360ff16145b80610ae2575060098360ff16145b80610af05750600b8360ff16145b15610afe57601e9050610b1a565b610b07826109ac565b15610b1557601d9050610b1a565b601c90505b92915050565b6000603c808381610b2d57fe5b0481610b3557fe5b069050919050565b610b45610cfd565b6000809050600080610b56856108ed565b846000019061ffff16908161ffff1681525050610b786107b261ffff16610a21565b610b89856000015161ffff16610a21565b039150816301e285000283019250816107b285600001510361ffff16036301e1338002830192506000600191505b600c8260ff1611610c0d57610bd0828660000151610a54565b60ff1662015180029050858482011115610bfb5781856020019060ff16908160ff1681525050610c0d565b80840193508180600101925050610bb7565b600191505b610c2485602001518660000151610a54565b60ff168260ff1611610c6957858462015180011115610c545781856040019060ff16908160ff1681525050610c69565b62015180840193508180600101925050610c12565b610c728661059c565b856060019060ff16908160ff1681525050610c8c86610b20565b856080019060ff16908160ff1681525050610ca686610633565b8560a0019060ff16908160ff1681525050610cc0866105c3565b8560c0019060ff16908160ff168152505050505050919050565b604051806101800160405280600c90602082028038833980820191505090505090565b6040518060e00160405280600061ffff168152602001600060ff168152602001600060ff168152602001600060ff168152602001600060ff168152602001600060ff168152602001600060ff168152509056fea265627a7a723158204689e8e40791bebaafa884d5272f62f05bebda78133104bdb27a5857cea2586364736f6c634300050c0032",
  "source": "pragma solidity ^0.5.0;\r\n\r\nimport \"./DateTime.sol\";\r\nimport \"../node_modules/@openzeppelin/contracts/math/SafeMath.sol\";\r\nimport \"./Order.sol\";\r\n\r\ncontract GroceriesFast {\r\n\r\n    using SafeMath for uint256;\r\n\r\n    DateTime dateTime = new DateTime();\r\n\r\n    uint256 MIN_REWARD = 0.01 ether;\r\n\r\n    uint256 numOrders;\r\n    mapping(uint256 => address) orders;\r\n\r\n    event OrderCreated(string _name, uint256 indexed _id);\r\n\r\n    modifier checkReward(uint256 _reward) {\r\n        require(MIN_REWARD <= _reward, \"Reward must be at least 0.01 ether.\");\r\n        _;\r\n    }\r\n\r\n    function createOrder(string memory name, uint256 reward) public checkReward(reward) returns (uint256 _id) {\r\n        Order newOrder = new Order(name, reward, numOrders, msg.sender);\r\n        orders[numOrders] = address(newOrder);\r\n        _id = numOrders;\r\n\r\n        numOrders = numOrders.add(1);\r\n\r\n        emit OrderCreated(name, _id);\r\n    }\r\n\r\n    function getOrderAddress(uint256 id) public view returns (address) {\r\n        return orders[id];\r\n    }\r\n}",
  "sourcePath": "C:/Users/mikes/OneDrive/Desktop/Ethereum/GroceriesFast/contracts/GroceriesFast.sol",
  "compiler": {
    "name": "solc",
    "version": "0.5.12+commit.7709ece9.Emscripten.clang"
  },
  "schemaVersion": "3.0.16",
  "updatedAt": "2019-10-23T22:26:30.952Z",
  "devdoc": {
    "methods": {}
  },
  "userdoc": {
    "methods": {}
  }
}