{
  "contractName": "GroceriesFast",
  "abi": [
    {
      "anonymous": false,
      "inputs": [
        {
          "indexed": true,
          "internalType": "uint256",
          "name": "_id",
          "type": "uint256"
        },
        {
          "indexed": false,
          "internalType": "string",
          "name": "_product",
          "type": "string"
        },
        {
          "indexed": false,
          "internalType": "uint16",
          "name": "_price",
          "type": "uint16"
        }
      ],
      "name": "ItemAdded",
      "type": "event"
    },
    {
      "anonymous": false,
      "inputs": [
        {
          "indexed": false,
          "internalType": "string",
          "name": "_name",
          "type": "string"
        },
        {
          "indexed": true,
          "internalType": "uint256",
          "name": "_id",
          "type": "uint256"
        }
      ],
      "name": "OrderCreated",
      "type": "event"
    },
    {
      "constant": false,
      "inputs": [
        {
          "internalType": "string",
          "name": "name",
          "type": "string"
        },
        {
          "internalType": "uint256",
          "name": "reward",
          "type": "uint256"
        }
      ],
      "name": "createOrder",
      "outputs": [
        {
          "internalType": "uint256",
          "name": "_id",
          "type": "uint256"
        }
      ],
      "payable": false,
      "stateMutability": "nonpayable",
      "type": "function"
    },
    {
      "constant": false,
      "inputs": [
        {
          "internalType": "uint256",
          "name": "id",
          "type": "uint256"
        },
        {
          "internalType": "string",
          "name": "product",
          "type": "string"
        },
        {
          "internalType": "uint16",
          "name": "price",
          "type": "uint16"
        }
      ],
      "name": "addItem",
      "outputs": [],
      "payable": false,
      "stateMutability": "nonpayable",
      "type": "function"
    },
    {
      "constant": true,
      "inputs": [
        {
          "internalType": "uint256",
          "name": "id",
          "type": "uint256"
        }
      ],
      "name": "getOrderAddress",
      "outputs": [
        {
          "internalType": "address",
          "name": "",
          "type": "address"
        }
      ],
      "payable": false,
      "stateMutability": "view",
      "type": "function"
    }
  ],
  "bytecode": "0x608060405260405161001090610089565b604051809103906000f08015801561002c573d6000803e3d6000fd5b506000806101000a81548173ffffffffffffffffffffffffffffffffffffffff021916908373ffffffffffffffffffffffffffffffffffffffff160217905550662386f26fc1000060015534801561008357600080fd5b50610096565b610da5806112ff83390190565b61125a806100a56000396000f3fe608060405234801561001057600080fd5b50600436106100415760003560e01c806330ec9f1814610046578063617ae9bd146100b457806397de706f14610187575b600080fd5b6100726004803603602081101561005c57600080fd5b8101908080359060200190929190505050610260565b604051808273ffffffffffffffffffffffffffffffffffffffff1673ffffffffffffffffffffffffffffffffffffffff16815260200191505060405180910390f35b610185600480360360608110156100ca57600080fd5b8101908080359060200190929190803590602001906401000000008111156100f157600080fd5b82018360208201111561010357600080fd5b8035906020019184600183028401116401000000008311171561012557600080fd5b91908080601f016020809104026020016040519081016040528093929190818152602001838380828437600081840152601f19601f820116905080830192505050505050509192919290803561ffff16906020019092919050505061029d565b005b61024a6004803603604081101561019d57600080fd5b81019080803590602001906401000000008111156101ba57600080fd5b8201836020820111156101cc57600080fd5b803590602001918460018302840111640100000000831117156101ee57600080fd5b91908080601f016020809104026020016040519081016040528093929190818152602001838380828437600081840152601f19601f8201169050808301925050505050505091929192908035906020019092919050505061058d565b6040518082815260200191505060405180910390f35b60006003600083815260200190815260200160002060009054906101000a900473ffffffffffffffffffffffffffffffffffffffff169050919050565b6000825111610314576040517f08c379a00000000000000000000000000000000000000000000000000000000081526004018080602001828103825260198152602001807f50726f64756374206d75737420686176652061206e616d652e0000000000000081525060200191505060405180910390fd5b60008161ffff161161038e576040517f08c379a000000000000000000000000000000000000000000000000000000000815260040180806020018281038252601d8152602001807f5072696365206d7573742062652067726561746572207468616e20302e00000081525060200191505060405180910390fd5b60006003600085815260200190815260200160002060009054906101000a900473ffffffffffffffffffffffffffffffffffffffff1690508073ffffffffffffffffffffffffffffffffffffffff166383e5d50b8484336040518463ffffffff1660e01b815260040180806020018461ffff1661ffff1681526020018373ffffffffffffffffffffffffffffffffffffffff1673ffffffffffffffffffffffffffffffffffffffff168152602001828103825285818151815260200191508051906020019080838360005b83811015610474578082015181840152602081019050610459565b50505050905090810190601f1680156104a15780820380516001836020036101000a031916815260200191505b50945050505050600060405180830381600087803b1580156104c257600080fd5b505af11580156104d6573d6000803e3d6000fd5b50505050837f1419e92e843e5aab38204b5463fdf5207a0f2df14f96d183ae2b056caf5f300a848460405180806020018361ffff1661ffff168152602001828103825284818151815260200191508051906020019080838360005b8381101561054c578082015181840152602081019050610531565b50505050905090810190601f1680156105795780820380516001836020036101000a031916815260200191505b50935050505060405180910390a250505050565b6000818060015411156105eb576040517f08c379a00000000000000000000000000000000000000000000000000000000081526004018080602001828103825260238152602001806112036023913960400191505060405180910390fd5b60008484600254336040516105ff90610870565b80806020018581526020018481526020018373ffffffffffffffffffffffffffffffffffffffff1673ffffffffffffffffffffffffffffffffffffffff168152602001828103825286818151815260200191508051906020019080838360005b8381101561067a57808201518184015260208101905061065f565b50505050905090810190601f1680156106a75780820380516001836020036101000a031916815260200191505b5095505050505050604051809103906000f0801580156106cb573d6000803e3d6000fd5b5090508060036000600254815260200190815260200160002060006101000a81548173ffffffffffffffffffffffffffffffffffffffff021916908373ffffffffffffffffffffffffffffffffffffffff160217905550600254925061073d60016002546107e890919063ffffffff16565b600281905550827f1a72d6383b1fc1b015bedc584a040a3cba7b0a5e33b00a43a1693b852be2382e866040518080602001828103825283818151815260200191508051906020019080838360005b838110156107a657808201518184015260208101905061078b565b50505050905090810190601f1680156107d35780820380516001836020036101000a031916815260200191505b509250505060405180910390a2505092915050565b600080828401905083811015610866576040517f08c379a000000000000000000000000000000000000000000000000000000000815260040180806020018281038252601b8152602001807f536166654d6174683a206164646974696f6e206f766572666c6f77000000000081525060200191505060405180910390fd5b8091505092915050565b6109858061087e8339019056fe608060405234801561001057600080fd5b506040516109853803806109858339818101604052608081101561003357600080fd5b810190808051604051939291908464010000000082111561005357600080fd5b8382019150602082018581111561006957600080fd5b825186600182028301116401000000008211171561008657600080fd5b8083526020830192505050908051906020019080838360005b838110156100ba57808201518184015260208101905061009f565b50505050905090810190601f1680156100e75780820380516001836020036101000a031916815260200191505b50604052602001805190602001909291908051906020019092919080519060200190929190505050836005908051906020019061012592919061017d565b508260018190555081600481905550806000806101000a81548173ffffffffffffffffffffffffffffffffffffffff021916908373ffffffffffffffffffffffffffffffffffffffff16021790555050505050610222565b828054600181600116156101000203166002900490600052602060002090601f016020900481019282601f106101be57805160ff19168380011785556101ec565b828001600101855582156101ec579182015b828111156101eb5782518255916020019190600101906101d0565b5b5090506101f991906101fd565b5090565b61021f91905b8082111561021b576000816000905550600101610203565b5090565b90565b610754806102316000396000f3fe608060405234801561001057600080fd5b50600436106100935760003560e01c8063730ef26911610066578063730ef2691461017557806383e5d50b146101935780639d9a7fe91461027c578063af640d0f1461029e578063bfb231d2146102bc57610093565b806306fdde031461009857806313845d2f1461011b578063228cb733146101395780634665096d14610157575b600080fd5b6100a0610372565b6040518080602001828103825283818151815260200191508051906020019080838360005b838110156100e05780820151818401526020810190506100c5565b50505050905090810190601f16801561010d5780820380516001836020036101000a031916815260200191505b509250505060405180910390f35b610123610410565b6040518082815260200191505060405180910390f35b610141610416565b6040518082815260200191505060405180910390f35b61015f61041c565b6040518082815260200191505060405180910390f35b61017d610422565b6040518082815260200191505060405180910390f35b61027a600480360360608110156101a957600080fd5b81019080803590602001906401000000008111156101c657600080fd5b8201836020820111156101d857600080fd5b803590602001918460018302840111640100000000831117156101fa57600080fd5b91908080601f016020809104026020016040519081016040528093929190818152602001838380828437600081840152601f19601f820116905080830192505050505050509192919290803561ffff169060200190929190803573ffffffffffffffffffffffffffffffffffffffff16906020019092919050505061042f565b005b610284610564565b604051808215151515815260200191505060405180910390f35b6102a6610577565b6040518082815260200191505060405180910390f35b6102e8600480360360208110156102d257600080fd5b810190808035906020019092919050505061057d565b60405180806020018361ffff1661ffff168152602001828103825284818151815260200191508051906020019080838360005b8381101561033657808201518184015260208101905061031b565b50505050905090810190601f1680156103635780820380516001836020036101000a031916815260200191505b50935050505060405180910390f35b60058054600181600116156101000203166002900480601f0160208091040260200160405190810160405280929190818152602001828054600181600116156101000203166002900480156104085780601f106103dd57610100808354040283529160200191610408565b820191906000526020600020905b8154815290600101906020018083116103eb57829003601f168201915b505050505081565b60025481565b60015481565b60035481565b6000600780549050905090565b808073ffffffffffffffffffffffffffffffffffffffff166000809054906101000a900473ffffffffffffffffffffffffffffffffffffffff1673ffffffffffffffffffffffffffffffffffffffff16146104d5576040517f08c379a00000000000000000000000000000000000000000000000000000000081526004018080602001828103825260268152602001806106fa6026913960400191505060405180910390fd5b600760405180604001604052808681526020018561ffff16815250908060018154018082558091505090600182039060005260206000209060020201600090919290919091506000820151816000019080519060200190610537929190610654565b5060208201518160010160006101000a81548161ffff021916908361ffff16021790555050505050505050565b600660009054906101000a900460ff1681565b60045481565b6007818154811061058a57fe5b9060005260206000209060020201600091509050806000018054600181600116156101000203166002900480601f0160208091040260200160405190810160405280929190818152602001828054600181600116156101000203166002900480156106365780601f1061060b57610100808354040283529160200191610636565b820191906000526020600020905b81548152906001019060200180831161061957829003601f168201915b5050505050908060010160009054906101000a900461ffff16905082565b828054600181600116156101000203166002900490600052602060002090601f016020900481019282601f1061069557805160ff19168380011785556106c3565b828001600101855582156106c3579182015b828111156106c25782518255916020019190600101906106a7565b5b5090506106d091906106d4565b5090565b6106f691905b808211156106f25760008160009055506001016106da565b5090565b9056fe4f6e6c7920746865206f776e65722063616e2063616c6c20746869732066756e6374696f6e2ea265627a7a7231582094326ea05db86b83868a01cfdf80576f1b1336f406dff4cbbb4130b86d9bbcf064736f6c634300050c0032526577617264206d757374206265206174206c6561737420302e30312065746865722ea265627a7a723158206237b72e381ab17147cc6b17d6b9578b204100f32c48b3f41520f868cc4e9dd964736f6c634300050c0032608060405234801561001057600080fd5b50610d85806100206000396000f3fe608060405234801561001057600080fd5b50600436106100ea5760003560e01c80639054bdec1161008c578063a6f0e57711610066578063a6f0e5771461046f578063b1999937146104b9578063b238ad0e146104fb578063fa93f88314610554576100ea565b80639054bdec1461035657806392d66313146103dd578063a324ad2414610427576100ea565b806365c72840116100c857806365c72840146101f95780637f791833146102415780638aa001fc146102ae5780638c8d98a0146102f6576100ea565b80633e239e1a146100ef5780634ac1ad781461013757806362ba96871461017f575b600080fd5b61011b6004803603602081101561010557600080fd5b810190808035906020019092919050505061059c565b604051808260ff1660ff16815260200191505060405180910390f35b6101636004803603602081101561014d57600080fd5b81019080803590602001909291905050506105c3565b604051808260ff1660ff16815260200191505060405180910390f35b6101e3600480360360a081101561019557600080fd5b81019080803561ffff169060200190929190803560ff169060200190929190803560ff169060200190929190803560ff169060200190929190803560ff1690602001909291905050506105e6565b6040518082815260200191505060405180910390f35b6102256004803603602081101561020f57600080fd5b8101908080359060200190929190505050610602565b604051808260ff1660ff16815260200191505060405180910390f35b6102986004803603608081101561025757600080fd5b81019080803561ffff169060200190929190803560ff169060200190929190803560ff169060200190929190803560ff169060200190929190505050610618565b6040518082815260200191505060405180910390f35b6102da600480360360208110156102c457600080fd5b8101908080359060200190929190505050610633565b604051808260ff1660ff16815260200191505060405180910390f35b6103406004803603606081101561030c57600080fd5b81019080803561ffff169060200190929190803560ff169060200190929190803560ff169060200190929190505050610647565b6040518082815260200191505060405180910390f35b6103c7600480360360c081101561036c57600080fd5b81019080803561ffff169060200190929190803560ff169060200190929190803560ff169060200190929190803560ff169060200190929190803560ff169060200190929190803560ff169060200190929190505050610662565b6040518082815260200191505060405180910390f35b610409600480360360208110156103f357600080fd5b81019080803590602001909291905050506108ed565b604051808261ffff1661ffff16815260200191505060405180910390f35b6104536004803603602081101561043d57600080fd5b8101908080359060200190929190505050610996565b604051808260ff1660ff16815260200191505060405180910390f35b61049f6004803603602081101561048557600080fd5b81019080803561ffff1690602001909291905050506109ac565b604051808215151515815260200191505060405180910390f35b6104e5600480360360208110156104cf57600080fd5b8101908080359060200190929190505050610a21565b6040518082815260200191505060405180910390f35b6105386004803603604081101561051157600080fd5b81019080803560ff169060200190929190803561ffff169060200190929190505050610a54565b604051808260ff1660ff16815260200191505060405180910390f35b6105806004803603602081101561056a57600080fd5b8101908080359060200190929190505050610b20565b604051808260ff1660ff16815260200191505060405180910390f35b60006018603c8084816105ab57fe5b04816105b357fe5b04816105bb57fe5b069050919050565b6000600760046201518084816105d557fe5b0401816105de57fe5b069050919050565b60006105f786868686866000610662565b905095945050505050565b600061060d82610b3d565b604001519050919050565b600061062985858585600080610662565b9050949350505050565b6000603c828161063f57fe5b069050919050565b60006106598484846000806000610662565b90509392505050565b6000806107b290505b8761ffff168161ffff1610156106ae57610684816109ac565b15610697576301e28500820191506106a1565b6301e13380820191505b808060010191505061066b565b6106b6610cda565b601f816000600c81106106c557fe5b602002019060ff16908160ff16815250506106df896109ac565b1561070957601d816001600c81106106f357fe5b602002019060ff16908160ff168152505061072a565b601c816001600c811061071857fe5b602002019060ff16908160ff16815250505b601f816002600c811061073957fe5b602002019060ff16908160ff1681525050601e816003600c811061075957fe5b602002019060ff16908160ff1681525050601f816004600c811061077957fe5b602002019060ff16908160ff1681525050601e816005600c811061079957fe5b602002019060ff16908160ff1681525050601f816006600c81106107b957fe5b602002019060ff16908160ff1681525050601f816007600c81106107d957fe5b602002019060ff16908160ff1681525050601e816008600c81106107f957fe5b602002019060ff16908160ff1681525050601f816009600c811061081957fe5b602002019060ff16908160ff1681525050601e81600a600c811061083957fe5b602002019060ff16908160ff1681525050601f81600b600c811061085957fe5b602002019060ff16908160ff1681525050600191505b8760ff168261ffff1610156108af57806001830361ffff16600c811061089157fe5b602002015160ff16620151800283019250818060010192505061086f565b6001870360ff166201518002830192508560ff16610e1002830192508460ff16603c02830192508360ff168301925082925050509695505050505050565b600080600090506000806301e13380858161090457fe5b046107b261ffff1601915061091e6107b261ffff16610a21565b61092b8361ffff16610a21565b039050806301e285000283019250806107b2830361ffff16036301e1338002830192505b8483111561098b57610963600183036109ac565b15610976576301e2850083039250610980565b6301e13380830392505b60018203915061094f565b819350505050919050565b60006109a182610b3d565b602001519050919050565b60008060048361ffff16816109bd57fe5b0661ffff16146109d05760009050610a1c565b600060648361ffff16816109e057fe5b0661ffff16146109f35760019050610a1c565b60006101908361ffff1681610a0457fe5b0661ffff1614610a175760009050610a1c565b600190505b919050565b60006001820391506101908281610a3457fe5b0460648381610a3f57fe5b0460048481610a4a57fe5b0403019050919050565b600060018360ff161480610a6b575060038360ff16145b80610a79575060058360ff16145b80610a87575060078360ff16145b80610a95575060088360ff16145b80610aa35750600a8360ff16145b80610ab15750600c8360ff16145b15610abf57601f9050610b1a565b60048360ff161480610ad4575060068360ff16145b80610ae2575060098360ff16145b80610af05750600b8360ff16145b15610afe57601e9050610b1a565b610b07826109ac565b15610b1557601d9050610b1a565b601c90505b92915050565b6000603c808381610b2d57fe5b0481610b3557fe5b069050919050565b610b45610cfd565b6000809050600080610b56856108ed565b846000019061ffff16908161ffff1681525050610b786107b261ffff16610a21565b610b89856000015161ffff16610a21565b039150816301e285000283019250816107b285600001510361ffff16036301e1338002830192506000600191505b600c8260ff1611610c0d57610bd0828660000151610a54565b60ff1662015180029050858482011115610bfb5781856020019060ff16908160ff1681525050610c0d565b80840193508180600101925050610bb7565b600191505b610c2485602001518660000151610a54565b60ff168260ff1611610c6957858462015180011115610c545781856040019060ff16908160ff1681525050610c69565b62015180840193508180600101925050610c12565b610c728661059c565b856060019060ff16908160ff1681525050610c8c86610b20565b856080019060ff16908160ff1681525050610ca686610633565b8560a0019060ff16908160ff1681525050610cc0866105c3565b8560c0019060ff16908160ff168152505050505050919050565b604051806101800160405280600c90602082028038833980820191505090505090565b6040518060e00160405280600061ffff168152602001600060ff168152602001600060ff168152602001600060ff168152602001600060ff168152602001600060ff168152602001600060ff168152509056fea265627a7a723158204689e8e40791bebaafa884d5272f62f05bebda78133104bdb27a5857cea2586364736f6c634300050c0032",
  "source": "pragma solidity ^0.5.0;\r\n\r\nimport \"./DateTime.sol\";\r\nimport \"../node_modules/@openzeppelin/contracts/math/SafeMath.sol\";\r\nimport \"./Order.sol\";\r\n\r\ncontract GroceriesFast {\r\n\r\n    using SafeMath for uint256;\r\n\r\n    DateTime dateTime = new DateTime();\r\n\r\n    uint256 MIN_REWARD = 0.01 ether;\r\n\r\n    uint256 numOrders;\r\n    mapping(uint256 => address) orders;\r\n\r\n    event OrderCreated(string _name, uint256 indexed _id);\r\n    event ItemAdded(uint256 indexed _id, string _product, uint16 _price);\r\n\r\n    modifier checkReward(uint256 _reward) {\r\n        require(MIN_REWARD <= _reward, \"Reward must be at least 0.01 ether.\");\r\n        _;\r\n    }\r\n\r\n    function createOrder(string memory name, uint256 reward) public checkReward(reward) returns (uint256 _id) {\r\n        Order newOrder = new Order(name, reward, numOrders, msg.sender);\r\n        orders[numOrders] = address(newOrder);\r\n        _id = numOrders;\r\n\r\n        numOrders = numOrders.add(1);\r\n\r\n        emit OrderCreated(name, _id);\r\n    }\r\n\r\n    function addItem(uint256 id, string memory product, uint16 price) public {\r\n        require(bytes(product).length > 0, \"Product must have a name.\");\r\n        require(price > 0, 'Price must be greater than 0.');\r\n\r\n        Order order = Order(orders[id]);\r\n        order.addItem(product, price, msg.sender);\r\n\r\n        emit ItemAdded(id, product, price);\r\n    }\r\n\r\n    function getOrderAddress(uint256 id) public view returns (address) {\r\n        return orders[id];\r\n    }\r\n}",
  "sourcePath": "C:/Users/mikes/OneDrive/Desktop/Ethereum/GroceriesFast/contracts/GroceriesFast.sol",
  "compiler": {
    "name": "solc",
    "version": "0.5.12+commit.7709ece9.Emscripten.clang"
  },
  "schemaVersion": "3.0.16",
  "updatedAt": "2019-10-21T23:07:52.379Z",
  "devdoc": {
    "methods": {}
  },
  "userdoc": {
    "methods": {}
  }
}