{
  "contractName": "Order",
  "abi": [
    {
      "inputs": [
        {
          "internalType": "string",
          "name": "_name",
          "type": "string"
        },
        {
          "internalType": "uint256",
          "name": "_reward",
          "type": "uint256"
        },
        {
          "internalType": "uint256",
          "name": "_id",
          "type": "uint256"
        },
        {
          "internalType": "address",
          "name": "_owner",
          "type": "address"
        }
      ],
      "payable": false,
      "stateMutability": "nonpayable",
      "type": "constructor"
    },
    {
      "constant": true,
      "inputs": [],
      "name": "completed",
      "outputs": [
        {
          "internalType": "bool",
          "name": "",
          "type": "bool"
        }
      ],
      "payable": false,
      "stateMutability": "view",
      "type": "function"
    },
    {
      "constant": true,
      "inputs": [],
      "name": "creation",
      "outputs": [
        {
          "internalType": "uint256",
          "name": "",
          "type": "uint256"
        }
      ],
      "payable": false,
      "stateMutability": "view",
      "type": "function"
    },
    {
      "constant": true,
      "inputs": [],
      "name": "expiration",
      "outputs": [
        {
          "internalType": "uint256",
          "name": "",
          "type": "uint256"
        }
      ],
      "payable": false,
      "stateMutability": "view",
      "type": "function"
    },
    {
      "constant": true,
      "inputs": [],
      "name": "id",
      "outputs": [
        {
          "internalType": "uint256",
          "name": "",
          "type": "uint256"
        }
      ],
      "payable": false,
      "stateMutability": "view",
      "type": "function"
    },
    {
      "constant": true,
      "inputs": [
        {
          "internalType": "uint256",
          "name": "",
          "type": "uint256"
        }
      ],
      "name": "items",
      "outputs": [
        {
          "internalType": "string",
          "name": "product",
          "type": "string"
        },
        {
          "internalType": "uint16",
          "name": "price",
          "type": "uint16"
        }
      ],
      "payable": false,
      "stateMutability": "view",
      "type": "function"
    },
    {
      "constant": true,
      "inputs": [],
      "name": "name",
      "outputs": [
        {
          "internalType": "string",
          "name": "",
          "type": "string"
        }
      ],
      "payable": false,
      "stateMutability": "view",
      "type": "function"
    },
    {
      "constant": true,
      "inputs": [],
      "name": "reward",
      "outputs": [
        {
          "internalType": "uint256",
          "name": "",
          "type": "uint256"
        }
      ],
      "payable": false,
      "stateMutability": "view",
      "type": "function"
    }
  ],
  "bytecode": "0x608060405234801561001057600080fd5b5060405161065b38038061065b8339818101604052608081101561003357600080fd5b810190808051604051939291908464010000000082111561005357600080fd5b8382019150602082018581111561006957600080fd5b825186600182028301116401000000008211171561008657600080fd5b8083526020830192505050908051906020019080838360005b838110156100ba57808201518184015260208101905061009f565b50505050905090810190601f1680156100e75780820380516001836020036101000a031916815260200191505b50604052602001805190602001909291908051906020019092919080519060200190929190505050836005908051906020019061012592919061017d565b508260018190555081600481905550806000806101000a81548173ffffffffffffffffffffffffffffffffffffffff021916908373ffffffffffffffffffffffffffffffffffffffff16021790555050505050610222565b828054600181600116156101000203166002900490600052602060002090601f016020900481019282601f106101be57805160ff19168380011785556101ec565b828001600101855582156101ec579182015b828111156101eb5782518255916020019190600101906101d0565b5b5090506101f991906101fd565b5090565b61021f91905b8082111561021b576000816000905550600101610203565b5090565b90565b61042a806102316000396000f3fe608060405234801561001057600080fd5b506004361061007d5760003560e01c80634665096d1161005b5780634665096d146101415780639d9a7fe91461015f578063af640d0f14610181578063bfb231d21461019f5761007d565b806306fdde031461008257806313845d2f14610105578063228cb73314610123575b600080fd5b61008a610255565b6040518080602001828103825283818151815260200191508051906020019080838360005b838110156100ca5780820151818401526020810190506100af565b50505050905090810190601f1680156100f75780820380516001836020036101000a031916815260200191505b509250505060405180910390f35b61010d6102f3565b6040518082815260200191505060405180910390f35b61012b6102f9565b6040518082815260200191505060405180910390f35b6101496102ff565b6040518082815260200191505060405180910390f35b610167610305565b604051808215151515815260200191505060405180910390f35b610189610318565b6040518082815260200191505060405180910390f35b6101cb600480360360208110156101b557600080fd5b810190808035906020019092919050505061031e565b60405180806020018361ffff1661ffff168152602001828103825284818151815260200191508051906020019080838360005b838110156102195780820151818401526020810190506101fe565b50505050905090810190601f1680156102465780820380516001836020036101000a031916815260200191505b50935050505060405180910390f35b60058054600181600116156101000203166002900480601f0160208091040260200160405190810160405280929190818152602001828054600181600116156101000203166002900480156102eb5780601f106102c0576101008083540402835291602001916102eb565b820191906000526020600020905b8154815290600101906020018083116102ce57829003601f168201915b505050505081565b60025481565b60015481565b60035481565b600660009054906101000a900460ff1681565b60045481565b6007818154811061032b57fe5b9060005260206000209060020201600091509050806000018054600181600116156101000203166002900480601f0160208091040260200160405190810160405280929190818152602001828054600181600116156101000203166002900480156103d75780601f106103ac576101008083540402835291602001916103d7565b820191906000526020600020905b8154815290600101906020018083116103ba57829003601f168201915b5050505050908060010160009054906101000a900461ffff1690508256fea265627a7a72315820bad77ad8e120fd48be4aca46a8e7abad706ad673d9af5df3951ce6467de753d264736f6c634300050c0032",
  "source": "pragma solidity ^0.5.0;\r\n\r\ncontract Order {\r\n\r\n    address owner;\r\n\r\n    struct Item {\r\n        string product;\r\n        uint16 price; // Price in U$D\r\n    }\r\n\r\n    uint256 public reward; // Reward in Wei\r\n    uint256 public creation;\r\n    uint256 public expiration;\r\n    uint256 public id;\r\n    string public name; // Order Request Name\r\n    bool public completed;\r\n    Item[] public items;\r\n\r\n    modifier onlyOwner(address addr){\r\n        require(owner == addr, \"Only the owner can call this function.\");\r\n        _;\r\n    }\r\n\r\n    constructor(string memory _name, uint256 _reward, uint256 _id, address _owner) public {\r\n        name = _name;\r\n        reward = _reward;\r\n        id = _id;\r\n        owner = _owner;\r\n    }\r\n}",
  "sourcePath": "C:\\Users\\mikes\\OneDrive\\Desktop\\Ethereum\\GroceriesFast\\contracts\\Order.sol",
  "compiler": {
    "name": "solc",
    "version": "0.5.12+commit.7709ece9.Emscripten.clang"
  },
  "schemaVersion": "3.0.16",
  "updatedAt": "2019-10-21T13:18:44.066Z",
  "devdoc": {
    "methods": {}
  },
  "userdoc": {
    "methods": {}
  }
}