{
  "contractName": "Order",
  "abi": [
    {
      "inputs": [
        {
          "internalType": "string",
          "name": "_name",
          "type": "string"
        },
        {
          "internalType": "uint256",
          "name": "_reward",
          "type": "uint256"
        },
        {
          "internalType": "uint256",
          "name": "_id",
          "type": "uint256"
        },
        {
          "internalType": "address",
          "name": "_owner",
          "type": "address"
        }
      ],
      "payable": false,
      "stateMutability": "nonpayable",
      "type": "constructor"
    },
    {
      "constant": true,
      "inputs": [],
      "name": "completed",
      "outputs": [
        {
          "internalType": "bool",
          "name": "",
          "type": "bool"
        }
      ],
      "payable": false,
      "stateMutability": "view",
      "type": "function"
    },
    {
      "constant": true,
      "inputs": [],
      "name": "creation",
      "outputs": [
        {
          "internalType": "uint256",
          "name": "",
          "type": "uint256"
        }
      ],
      "payable": false,
      "stateMutability": "view",
      "type": "function"
    },
    {
      "constant": true,
      "inputs": [],
      "name": "expiration",
      "outputs": [
        {
          "internalType": "uint256",
          "name": "",
          "type": "uint256"
        }
      ],
      "payable": false,
      "stateMutability": "view",
      "type": "function"
    },
    {
      "constant": true,
      "inputs": [],
      "name": "id",
      "outputs": [
        {
          "internalType": "uint256",
          "name": "",
          "type": "uint256"
        }
      ],
      "payable": false,
      "stateMutability": "view",
      "type": "function"
    },
    {
      "constant": true,
      "inputs": [
        {
          "internalType": "uint256",
          "name": "",
          "type": "uint256"
        }
      ],
      "name": "items",
      "outputs": [
        {
          "internalType": "string",
          "name": "product",
          "type": "string"
        },
        {
          "internalType": "uint16",
          "name": "price",
          "type": "uint16"
        }
      ],
      "payable": false,
      "stateMutability": "view",
      "type": "function"
    },
    {
      "constant": true,
      "inputs": [],
      "name": "name",
      "outputs": [
        {
          "internalType": "string",
          "name": "",
          "type": "string"
        }
      ],
      "payable": false,
      "stateMutability": "view",
      "type": "function"
    },
    {
      "constant": true,
      "inputs": [],
      "name": "reward",
      "outputs": [
        {
          "internalType": "uint256",
          "name": "",
          "type": "uint256"
        }
      ],
      "payable": false,
      "stateMutability": "view",
      "type": "function"
    },
    {
      "constant": true,
      "inputs": [],
      "name": "getNumberOfItems",
      "outputs": [
        {
          "internalType": "uint256",
          "name": "",
          "type": "uint256"
        }
      ],
      "payable": false,
      "stateMutability": "view",
      "type": "function"
    },
    {
      "constant": false,
      "inputs": [
        {
          "internalType": "string",
          "name": "product",
          "type": "string"
        },
        {
          "internalType": "uint16",
          "name": "price",
          "type": "uint16"
        },
        {
          "internalType": "address",
          "name": "sender",
          "type": "address"
        }
      ],
      "name": "addItem",
      "outputs": [],
      "payable": false,
      "stateMutability": "nonpayable",
      "type": "function"
    }
  ],
  "bytecode": "0x608060405234801561001057600080fd5b506040516109853803806109858339818101604052608081101561003357600080fd5b810190808051604051939291908464010000000082111561005357600080fd5b8382019150602082018581111561006957600080fd5b825186600182028301116401000000008211171561008657600080fd5b8083526020830192505050908051906020019080838360005b838110156100ba57808201518184015260208101905061009f565b50505050905090810190601f1680156100e75780820380516001836020036101000a031916815260200191505b50604052602001805190602001909291908051906020019092919080519060200190929190505050836005908051906020019061012592919061017d565b508260018190555081600481905550806000806101000a81548173ffffffffffffffffffffffffffffffffffffffff021916908373ffffffffffffffffffffffffffffffffffffffff16021790555050505050610222565b828054600181600116156101000203166002900490600052602060002090601f016020900481019282601f106101be57805160ff19168380011785556101ec565b828001600101855582156101ec579182015b828111156101eb5782518255916020019190600101906101d0565b5b5090506101f991906101fd565b5090565b61021f91905b8082111561021b576000816000905550600101610203565b5090565b90565b610754806102316000396000f3fe608060405234801561001057600080fd5b50600436106100935760003560e01c8063730ef26911610066578063730ef2691461017557806383e5d50b146101935780639d9a7fe91461027c578063af640d0f1461029e578063bfb231d2146102bc57610093565b806306fdde031461009857806313845d2f1461011b578063228cb733146101395780634665096d14610157575b600080fd5b6100a0610372565b6040518080602001828103825283818151815260200191508051906020019080838360005b838110156100e05780820151818401526020810190506100c5565b50505050905090810190601f16801561010d5780820380516001836020036101000a031916815260200191505b509250505060405180910390f35b610123610410565b6040518082815260200191505060405180910390f35b610141610416565b6040518082815260200191505060405180910390f35b61015f61041c565b6040518082815260200191505060405180910390f35b61017d610422565b6040518082815260200191505060405180910390f35b61027a600480360360608110156101a957600080fd5b81019080803590602001906401000000008111156101c657600080fd5b8201836020820111156101d857600080fd5b803590602001918460018302840111640100000000831117156101fa57600080fd5b91908080601f016020809104026020016040519081016040528093929190818152602001838380828437600081840152601f19601f820116905080830192505050505050509192919290803561ffff169060200190929190803573ffffffffffffffffffffffffffffffffffffffff16906020019092919050505061042f565b005b610284610564565b604051808215151515815260200191505060405180910390f35b6102a6610577565b6040518082815260200191505060405180910390f35b6102e8600480360360208110156102d257600080fd5b810190808035906020019092919050505061057d565b60405180806020018361ffff1661ffff168152602001828103825284818151815260200191508051906020019080838360005b8381101561033657808201518184015260208101905061031b565b50505050905090810190601f1680156103635780820380516001836020036101000a031916815260200191505b50935050505060405180910390f35b60058054600181600116156101000203166002900480601f0160208091040260200160405190810160405280929190818152602001828054600181600116156101000203166002900480156104085780601f106103dd57610100808354040283529160200191610408565b820191906000526020600020905b8154815290600101906020018083116103eb57829003601f168201915b505050505081565b60025481565b60015481565b60035481565b6000600780549050905090565b808073ffffffffffffffffffffffffffffffffffffffff166000809054906101000a900473ffffffffffffffffffffffffffffffffffffffff1673ffffffffffffffffffffffffffffffffffffffff16146104d5576040517f08c379a00000000000000000000000000000000000000000000000000000000081526004018080602001828103825260268152602001806106fa6026913960400191505060405180910390fd5b600760405180604001604052808681526020018561ffff16815250908060018154018082558091505090600182039060005260206000209060020201600090919290919091506000820151816000019080519060200190610537929190610654565b5060208201518160010160006101000a81548161ffff021916908361ffff16021790555050505050505050565b600660009054906101000a900460ff1681565b60045481565b6007818154811061058a57fe5b9060005260206000209060020201600091509050806000018054600181600116156101000203166002900480601f0160208091040260200160405190810160405280929190818152602001828054600181600116156101000203166002900480156106365780601f1061060b57610100808354040283529160200191610636565b820191906000526020600020905b81548152906001019060200180831161061957829003601f168201915b5050505050908060010160009054906101000a900461ffff16905082565b828054600181600116156101000203166002900490600052602060002090601f016020900481019282601f1061069557805160ff19168380011785556106c3565b828001600101855582156106c3579182015b828111156106c25782518255916020019190600101906106a7565b5b5090506106d091906106d4565b5090565b6106f691905b808211156106f25760008160009055506001016106da565b5090565b9056fe4f6e6c7920746865206f776e65722063616e2063616c6c20746869732066756e6374696f6e2ea265627a7a7231582094326ea05db86b83868a01cfdf80576f1b1336f406dff4cbbb4130b86d9bbcf064736f6c634300050c0032",
  "source": "pragma solidity ^0.5.0;\r\n\r\ncontract Order {\r\n\r\n    address owner;\r\n\r\n    struct Item {\r\n        string product;\r\n        uint16 price; // Price in U$D\r\n    }\r\n\r\n    uint256 public reward; // Reward in Wei\r\n    uint256 public creation;\r\n    uint256 public expiration;\r\n    uint256 public id;\r\n    string public name; // Order Request Name\r\n    bool public completed;\r\n    Item[] public items;\r\n\r\n    constructor(string memory _name, uint256 _reward, uint256 _id, address _owner) public {\r\n        name = _name;\r\n        reward = _reward;\r\n        id = _id;\r\n        owner = _owner;\r\n    }\r\n\r\n    modifier onlyOwner(address addr){\r\n        require(owner == addr, \"Only the owner can call this function.\");\r\n        _;\r\n    }\r\n\r\n    function getNumberOfItems() public view returns (uint256) {\r\n        return items.length;\r\n    }\r\n\r\n    function addItem(string memory product, uint16 price, address sender) public onlyOwner(sender) {\r\n        items.push(Item(product, price));\r\n    }\r\n}",
  "sourcePath": "C:\\Users\\mikes\\OneDrive\\Desktop\\Ethereum\\GroceriesFast\\contracts\\Order.sol",
  "compiler": {
    "name": "solc",
    "version": "0.5.12+commit.7709ece9.Emscripten.clang"
  },
  "schemaVersion": "3.0.16",
  "updatedAt": "2019-10-21T23:07:51.279Z",
  "devdoc": {
    "methods": {}
  },
  "userdoc": {
    "methods": {}
  }
}