{
  "contractName": "Order",
  "abi": [
    {
      "inputs": [
        {
          "internalType": "string",
          "name": "_name",
          "type": "string"
        },
        {
          "internalType": "uint256",
          "name": "_reward",
          "type": "uint256"
        },
        {
          "internalType": "uint256",
          "name": "_id",
          "type": "uint256"
        },
        {
          "internalType": "address",
          "name": "_owner",
          "type": "address"
        }
      ],
      "payable": false,
      "stateMutability": "nonpayable",
      "type": "constructor"
    },
    {
      "anonymous": false,
      "inputs": [
        {
          "indexed": false,
          "internalType": "string",
          "name": "_product",
          "type": "string"
        },
        {
          "indexed": false,
          "internalType": "uint16",
          "name": "_price",
          "type": "uint16"
        }
      ],
      "name": "ItemAdded",
      "type": "event"
    },
    {
      "payable": true,
      "stateMutability": "payable",
      "type": "fallback"
    },
    {
      "constant": true,
      "inputs": [],
      "name": "completed",
      "outputs": [
        {
          "internalType": "bool",
          "name": "",
          "type": "bool"
        }
      ],
      "payable": false,
      "stateMutability": "view",
      "type": "function"
    },
    {
      "constant": true,
      "inputs": [],
      "name": "cost",
      "outputs": [
        {
          "internalType": "uint256",
          "name": "",
          "type": "uint256"
        }
      ],
      "payable": false,
      "stateMutability": "view",
      "type": "function"
    },
    {
      "constant": true,
      "inputs": [],
      "name": "creation",
      "outputs": [
        {
          "internalType": "uint256",
          "name": "",
          "type": "uint256"
        }
      ],
      "payable": false,
      "stateMutability": "view",
      "type": "function"
    },
    {
      "constant": true,
      "inputs": [],
      "name": "expiration",
      "outputs": [
        {
          "internalType": "uint256",
          "name": "",
          "type": "uint256"
        }
      ],
      "payable": false,
      "stateMutability": "view",
      "type": "function"
    },
    {
      "constant": true,
      "inputs": [],
      "name": "id",
      "outputs": [
        {
          "internalType": "uint256",
          "name": "",
          "type": "uint256"
        }
      ],
      "payable": false,
      "stateMutability": "view",
      "type": "function"
    },
    {
      "constant": true,
      "inputs": [
        {
          "internalType": "uint256",
          "name": "",
          "type": "uint256"
        }
      ],
      "name": "items",
      "outputs": [
        {
          "internalType": "string",
          "name": "product",
          "type": "string"
        },
        {
          "internalType": "uint16",
          "name": "price",
          "type": "uint16"
        }
      ],
      "payable": false,
      "stateMutability": "view",
      "type": "function"
    },
    {
      "constant": true,
      "inputs": [],
      "name": "name",
      "outputs": [
        {
          "internalType": "string",
          "name": "",
          "type": "string"
        }
      ],
      "payable": false,
      "stateMutability": "view",
      "type": "function"
    },
    {
      "constant": true,
      "inputs": [],
      "name": "ongoing",
      "outputs": [
        {
          "internalType": "bool",
          "name": "",
          "type": "bool"
        }
      ],
      "payable": false,
      "stateMutability": "view",
      "type": "function"
    },
    {
      "constant": true,
      "inputs": [],
      "name": "reward",
      "outputs": [
        {
          "internalType": "uint256",
          "name": "",
          "type": "uint256"
        }
      ],
      "payable": false,
      "stateMutability": "view",
      "type": "function"
    },
    {
      "constant": true,
      "inputs": [],
      "name": "getNumberOfItems",
      "outputs": [
        {
          "internalType": "uint256",
          "name": "",
          "type": "uint256"
        }
      ],
      "payable": false,
      "stateMutability": "view",
      "type": "function"
    },
    {
      "constant": false,
      "inputs": [
        {
          "internalType": "string",
          "name": "product",
          "type": "string"
        },
        {
          "internalType": "uint16",
          "name": "price",
          "type": "uint16"
        }
      ],
      "name": "addItem",
      "outputs": [],
      "payable": false,
      "stateMutability": "nonpayable",
      "type": "function"
    }
  ],
  "bytecode": "0x60806040523480156200001157600080fd5b5060405162000e6e38038062000e6e833981810160405260808110156200003757600080fd5b81019080805160405193929190846401000000008211156200005857600080fd5b838201915060208201858111156200006f57600080fd5b82518660018202830111640100000000821117156200008d57600080fd5b8083526020830192505050908051906020019080838360005b83811015620000c3578082015181840152602081019050620000a6565b50505050905090810190601f168015620000f15780820380516001836020036101000a031916815260200191505b50604052602001805190602001909291908051906020019092919080519060200190929190505050836006908051906020019062000131929190620001ac565b508260018190555081600481905550806000806101000a81548173ffffffffffffffffffffffffffffffffffffffff021916908373ffffffffffffffffffffffffffffffffffffffff160217905550426002819055506001600760016101000a81548160ff021916908315150217905550505050506200025b565b828054600181600116156101000203166002900490600052602060002090601f016020900481019282601f10620001ef57805160ff191683800117855562000220565b8280016001018555821562000220579182015b828111156200021f57825182559160200191906001019062000202565b5b5090506200022f919062000233565b5090565b6200025891905b80821115620002545760008160009055506001016200023a565b5090565b90565b610c03806200026b6000396000f3fe60806040526004361061009c5760003560e01c80634665096d116100645780634665096d146102fc578063730ef269146103275780637437558c146103525780639d9a7fe914610428578063af640d0f14610457578063bfb231d2146104825761009c565b806306fdde03146101bc57806313845d2f1461024c57806313faede6146102775780631ff11f54146102a2578063228cb733146102d1575b3373ffffffffffffffffffffffffffffffffffffffff166000809054906101000a900473ffffffffffffffffffffffffffffffffffffffff1673ffffffffffffffffffffffffffffffffffffffff1614610141576040517f08c379a0000000000000000000000000000000000000000000000000000000008152600401808060200182810382526026815260200180610ba96026913960400191505060405180910390fd5b600080369050146101ba576040517f08c379a000000000000000000000000000000000000000000000000000000000815260040180806020018281038252601c8152602001807f496e76616c69642066756e6374696f6e207761732063616c6c65642e0000000081525060200191505060405180910390fd5b005b3480156101c857600080fd5b506101d1610545565b6040518080602001828103825283818151815260200191508051906020019080838360005b838110156102115780820151818401526020810190506101f6565b50505050905090810190601f16801561023e5780820380516001836020036101000a031916815260200191505b509250505060405180910390f35b34801561025857600080fd5b506102616105e3565b6040518082815260200191505060405180910390f35b34801561028357600080fd5b5061028c6105e9565b6040518082815260200191505060405180910390f35b3480156102ae57600080fd5b506102b76105ef565b604051808215151515815260200191505060405180910390f35b3480156102dd57600080fd5b506102e6610602565b6040518082815260200191505060405180910390f35b34801561030857600080fd5b50610311610608565b6040518082815260200191505060405180910390f35b34801561033357600080fd5b5061033c61060e565b6040518082815260200191505060405180910390f35b34801561035e57600080fd5b506104266004803603604081101561037557600080fd5b810190808035906020019064010000000081111561039257600080fd5b8201836020820111156103a457600080fd5b803590602001918460018302840111640100000000831117156103c657600080fd5b91908080601f016020809104026020016040519081016040528093929190818152602001838380828437600081840152601f19601f820116905080830192505050505050509192919290803561ffff16906020019092919050505061061b565b005b34801561043457600080fd5b5061043d61098b565b604051808215151515815260200191505060405180910390f35b34801561046357600080fd5b5061046c61099e565b6040518082815260200191505060405180910390f35b34801561048e57600080fd5b506104bb600480360360208110156104a557600080fd5b81019080803590602001909291905050506109a4565b60405180806020018361ffff1661ffff168152602001828103825284818151815260200191508051906020019080838360005b838110156105095780820151818401526020810190506104ee565b50505050905090810190601f1680156105365780820380516001836020036101000a031916815260200191505b50935050505060405180910390f35b60068054600181600116156101000203166002900480601f0160208091040260200160405190810160405280929190818152602001828054600181600116156101000203166002900480156105db5780601f106105b0576101008083540402835291602001916105db565b820191906000526020600020905b8154815290600101906020018083116105be57829003601f168201915b505050505081565b60025481565b60055481565b600760019054906101000a900460ff1681565b60015481565b60035481565b6000600880549050905090565b3373ffffffffffffffffffffffffffffffffffffffff166000809054906101000a900473ffffffffffffffffffffffffffffffffffffffff1673ffffffffffffffffffffffffffffffffffffffff16146106c0576040517f08c379a0000000000000000000000000000000000000000000000000000000008152600401808060200182810382526026815260200180610ba96026913960400191505060405180910390fd5b600760019054906101000a900460ff16610742576040517f08c379a000000000000000000000000000000000000000000000000000000000815260040180806020018281038252601a8152602001807f54686973206f72646572206973206e6f74206f6e676f696e672e00000000000081525060200191505060405180910390fd5b60008251116107b9576040517f08c379a00000000000000000000000000000000000000000000000000000000081526004018080602001828103825260198152602001807f50726f64756374206d75737420686176652061206e616d652e0000000000000081525060200191505060405180910390fd5b60008161ffff1611610833576040517f08c379a000000000000000000000000000000000000000000000000000000000815260040180806020018281038252601d8152602001807f5072696365206d7573742062652067726561746572207468616e20302e00000081525060200191505060405180910390fd5b61084c8161ffff16600554610a7b90919063ffffffff16565b600581905550600860405180604001604052808481526020018361ffff168152509080600181540180825580915050906001820390600052602060002090600202016000909192909190915060008201518160000190805190602001906108b4929190610b03565b5060208201518160010160006101000a81548161ffff021916908361ffff1602179055505050507f2f6818f53db2ccff742df7c778d4148082fadbe303ea6fc07656cc76a6245c57828260405180806020018361ffff1661ffff168152602001828103825284818151815260200191508051906020019080838360005b8381101561094c578082015181840152602081019050610931565b50505050905090810190601f1680156109795780820380516001836020036101000a031916815260200191505b50935050505060405180910390a15050565b600760009054906101000a900460ff1681565b60045481565b600881815481106109b157fe5b9060005260206000209060020201600091509050806000018054600181600116156101000203166002900480601f016020809104026020016040519081016040528092919081815260200182805460018160011615610100020316600290048015610a5d5780601f10610a3257610100808354040283529160200191610a5d565b820191906000526020600020905b815481529060010190602001808311610a4057829003601f168201915b5050505050908060010160009054906101000a900461ffff16905082565b600080828401905083811015610af9576040517f08c379a000000000000000000000000000000000000000000000000000000000815260040180806020018281038252601b8152602001807f536166654d6174683a206164646974696f6e206f766572666c6f77000000000081525060200191505060405180910390fd5b8091505092915050565b828054600181600116156101000203166002900490600052602060002090601f016020900481019282601f10610b4457805160ff1916838001178555610b72565b82800160010185558215610b72579182015b82811115610b71578251825591602001919060010190610b56565b5b509050610b7f9190610b83565b5090565b610ba591905b80821115610ba1576000816000905550600101610b89565b5090565b9056fe4f6e6c7920746865206f776e65722063616e2063616c6c20746869732066756e6374696f6e2ea265627a7a72315820684da9ec4aaf96aef9f915d3748cb62809e70738f4ce05a066ead4fe8d19569d64736f6c634300050c0032",
  "source": "pragma solidity ^0.5.0;\r\n\r\nimport \"../node_modules/@openzeppelin/contracts/math/SafeMath.sol\";\r\n\r\ncontract Order {\r\n\r\n    using SafeMath for uint256;\r\n\r\n    struct Item {\r\n        string product;\r\n        uint16 price; // Price in U$D\r\n    }\r\n\r\n    address owner;\r\n    uint256 public reward; // Reward in Wei\r\n    uint256 public creation;\r\n    uint256 public expiration;\r\n    uint256 public id;\r\n    uint256 public cost;\r\n    string public name; // Order Request Name\r\n    bool public completed;\r\n    bool public ongoing;\r\n    Item[] public items;\r\n\r\n    event ItemAdded(string _product, uint16 _price);\r\n\r\n    constructor(string memory _name, uint256 _reward, uint256 _id, address _owner) public {\r\n        name = _name;\r\n        reward = _reward;\r\n        id = _id;\r\n        owner = _owner;\r\n        creation = now;\r\n        ongoing = true;\r\n    }\r\n\r\n    modifier onlyOwner {\r\n        require(owner == msg.sender, \"Only the owner can call this function.\");\r\n        _;\r\n    }\r\n\r\n    modifier isOrderOngoing {\r\n        require(ongoing, \"This order is not ongoing.\");\r\n        _;\r\n    }\r\n\r\n    function getNumberOfItems() public view returns (uint256) {\r\n        return items.length;\r\n    }\r\n\r\n    function addItem(string memory product, uint16 price) public onlyOwner isOrderOngoing {\r\n        require(bytes(product).length > 0, \"Product must have a name.\");\r\n        require(price > 0, 'Price must be greater than 0.');\r\n\r\n        cost = cost.add(price);\r\n        items.push(Item(product, price));\r\n\r\n        emit ItemAdded(product, price);\r\n    }\r\n\r\n    function() external payable onlyOwner {\r\n        require(msg.data.length == 0, \"Invalid function was called.\"); // Prevent invalid calls\r\n    }\r\n}",
  "sourcePath": "C:\\Users\\mikes\\OneDrive\\Desktop\\Ethereum\\GroceriesFast\\contracts\\Order.sol",
  "compiler": {
    "name": "solc",
    "version": "0.5.12+commit.7709ece9.Emscripten.clang"
  },
  "schemaVersion": "3.0.16",
  "updatedAt": "2019-10-23T22:26:30.965Z",
  "devdoc": {
    "methods": {}
  },
  "userdoc": {
    "methods": {}
  }
}